:020000040000FA
:100000000C9463000C948B000C948B000C94DF0711
:100010000C94DF070C94DF070C948B000C948B007E
:100020000C948B000C948B000C948B000C948B0024
:100030000C948B000C948B000C948B000C948B0014
:100040000C943D070C948B000C94AD070C9487071F
:100050000C948B000C948B000C948B000C948B00F4
:100060000C948B000C948B000000000024002700EF
:100070002A0000000008000201000003040700003D
:1000800000000000000000000000230026002900FE
:1000900000000000250028002B00040404040404D0
:1000A0000404020202020202030303030303010227
:1000B00004081020408001020408102001020408F6
:1000C00010205708960F11241FBECFEFD8E0DEBFD7
:1000D000CDBF26E0ACE6B5E001C01D92AD39B20758
:1000E000E1F715E0A0E0B1E0E4E7F4E202C005903A
:1000F0000D92AC36B107D9F710E0C2E6D0E004C0EB
:100100002197FE010E941B10C136D107C9F70E943A
:1001100034090C942D120C940000833081F028F4E3
:10012000813099F08230A9F008958730A9F08830A5
:10013000C9F08430B1F4809180008F7D03C080913C
:1001400080008F7780938000089584B58F7784BD79
:10015000089584B58F7DFBCF8091B0008F77809319
:10016000B00008958091B0008F7DF9CFCF93DF93D9
:10017000282F30E0F901EE58FF4F8491F901E25544
:10018000FF4FD491F901E656FF4FC491CC23A1F063
:1001900081110E948D00EC2FF0E0EE0FFF1FEA5757
:1001A000FF4FA591B491EC91ED2381E090E009F42B
:1001B00080E0DF91CF91089580E090E0FACF1F9327
:1001C000CF93DF93282F30E0F901EE58FF4F849151
:1001D000F901E255FF4FD491F901E656FF4FC49162
:1001E000CC23A9F0162F81110E948D00EC2FF0E096
:1001F000EE0FFF1FE057FF4FA591B4918FB7F89412
:10020000EC91111108C0D095DE23DC938FBFDF91F4
:10021000CF911F910895DE2BF8CFCF93DF9390E01D
:10022000FC01E255FF4F249186569F4FFC018491BB
:100230008823D1F090E0880F991FFC01E859FF4F07
:10024000A591B491FC01E057FF4FC591D491611184
:100250000EC09FB7F8948C91E22FE0958E238C937B
:100260002881E223E8839FBFDF91CF9108958FB764
:10027000F894EC91E22BEC938FBFF6CF3FB7F89454
:100280008091BB059091BC05A091BD05B091BE05C4
:1002900026B5A89B05C02F3F19F00196A11DB11DE1
:1002A0003FBFBA2FA92F982F8827BC01CD01620F1D
:1002B000711D811D911D42E0660F771F881F991FD8
:1002C0004A95D1F708958F929F92AF92BF92CF92A5
:1002D000DF92EF92FF924B015C010E943E016B01A5
:1002E0007C010E943E016C197D098E099F09683EC0
:1002F000734081059105A8F321E0821A9108A108B5
:10030000B10888EEC80E83E0D81EE11CF11C8114F0
:100310009104A104B10429F7FF90EF90DF90CF90F2
:10032000BF90AF909F908F9008950895DB01149631
:100330004D915C9115976D917C91DC01ED91FC9153
:100340000280F381E02D0994AF92BF92CF92DF92A9
:10035000EF92FF920F931F93CF93DF936C017B017A
:100360008B01040F151FEB015E01AE18BF08C0170B
:10037000D10759F06991D601ED91FC910190F0817E
:10038000E02DC6010995892B79F7C501DF91CF9141
:100390001F910F91FF90EF90DF90CF90BF90AF90A3
:1003A0000895FC01538D448D252F30E0842F90E07B
:1003B000821B930B541710F0CF9608950197089560
:1003C000FC01918D828D981761F0A28DAE0FBF2F29
:1003D000B11D5D968C91928D9F5F9F73928F90E07F
:1003E00008958FEF9FEF0895FC01918D828D9817EE
:1003F00031F0828DE80FF11D858D90E008958FEF2B
:100400009FEF0895FC01918D228D892F90E0805CF3
:100410009F4F821B91098F73992708958FEB95E069
:100420000E94020221E0892B09F420E0822F089526
:1004300080E090E0892B29F00E940E0281110C943B
:1004400000000895FC01A48DA80FB92FB11DA35A77
:10045000BF4F2C91848D90E001968F739927848FE4
:10046000A689B7892C93A089B1898C918370806407
:100470008C93938D848D981306C00288F389E02DA8
:1004800080818F7D80830895EF92FF920F931F9359
:10049000CF93DF93EC0181E0888F9B8D8C8D981337
:1004A0001AC0E889F989808185FF15C09FB7F89443
:1004B000EE89FF896083E889F9898081837080648F
:1004C00080839FBF81E090E0DF91CF911F910F91DA
:1004D000FF90EF900895F62E0B8D10E00F5F1F4FE9
:1004E0000F731127E02E8C8D8E110CC00FB607FCF8
:1004F000FACFE889F989808185FFF5CFCE010E9486
:100500002202F1CFEB8DEC0FFD2FF11DE35AFF4FCF
:10051000F0829FB7F8940B8FEA89FB898081806213
:10052000CFCFCF93DF93EC01888D8823B9F0AA89D0
:10053000BB89E889F9898C9185FD03C0808186FD9E
:100540000DC00FB607FCF7CF8C9185FFF2CF8081ED
:1005500085FFEDCFCE010E942202E9CFDF91CF913E
:1005600008952091AE053091AF052817390771F431
:100570009091AC058091AD05981741F0E091AC05E4
:10058000F0E0E459FA4F808190E008958FEF9FEFFB
:1005900008950895EF92FF920F931F93CF93DF93E7
:1005A000DC015C96ED90FC905D97E114F10479F428
:1005B00081E090E013969C938E93129790E080E0F8
:1005C000DF91CF911F910F91FF90EF900895519679
:1005D000ED91FC91529750968C915097982F909551
:1005E0000FB75E962C915E97122F127021FD6095C9
:1005F000F8942081112319F1282B2083E7012197FA
:10060000F1F728E0462F50E0308160FF1AC0382B08
:100610003083E7012197F1F7BA017595679521506D
:1006200089F7112381F08081892380830FBF5C9635
:100630008D919C910197F1F781E090E0C1CF292342
:10064000DCCF3923E5CF9081892BEFCF2091AE0508
:100650003091AF052817390761F48091AD052091DD
:10066000AC0590E0805C9F4F821B91098F739927A6
:10067000089590E080E008952091AE053091AF0597
:1006800028173907B9F49091AC058091AD059817FA
:1006900089F0E091AC05F0E0E459FA4F80812091B7
:1006A000AC0530E02F5F3F4F2F7333272093AC050D
:1006B00090E008958FEF9FEF089590E080E0089517
:1006C000CF93DF93EC0160E08E810E94DF0061E058
:1006D0008E810E94DF0060E08E810E94DF008BE847
:1006E00091E00197F1F7DF91CF910895CF92DF92DA
:1006F000EF92FF920F931F93CF93DF936C017C01D6
:1007000087E0E80EF11CD0E0C0E0062F10E0B80151
:100710000C2E02C0759567950A94E2F76170F70197
:1007200081917F010E94DF002196C430D10579F7C5
:10073000C601DF91CF911F910F91FF90EF90DF9055
:10074000CF900C946003CF92DF92EF92FF920F93C1
:100750001F93CF93DF93EC01F62E642F8C810E94C0
:10076000DF008D818F3F19F060E00E94DF000F2DC8
:1007700010E08F8584FF25C06E0187E0C80ED11C74
:10078000F12CE12CB8010E2C02C0759567950A94E6
:10079000E2F76170F60181916F010E94DF00FFEFC7
:1007A000EF1AFF0A88E0E816F10461F7CE01DF9145
:1007B000CF911F910F91FF90EF90DF90CF900C940D
:1007C0006003B80184E0759567958A95E1F7CE01DD
:1007D0000E9476036F2DCE01DF91CF911F910F9173
:1007E000FF90EF90DF90CF900C94760340E0682F5D
:1007F00082E696E00C94A30381E00E94F6038BE36B
:100800009FE10197F1F70895CF93DF93613029F0CD
:10081000909171069860909371066093750610929E
:10082000760690E49093770680937806805C8093B8
:10083000790661E0809166060E940D01809167064D
:100840008F3F19F061E00E940D0161E08091680620
:100850000E940D01C2E6D6E09E01225636408091EC
:10086000710684FD0BC084E090E0219628173907BB
:1008700044F461E08E810E940D01EECF88E090E0AB
:10088000F4CF8BE39DE00197F1F760E0809166067D
:100890000E94DF0060E0809168060E94DF00809186
:1008A00067068F3F19F060E00E94DF0080917106BB
:1008B00084FD34C063E082E696E00E947603CBE4D8
:1008C000D6E4CE010197F1F763E082E696E00E945C
:1008D00076032197F1F763E082E696E00E947603C3
:1008E00083E592E00197F1F762E082E696E00E94EC
:1008F00076038091710680620E94F60384E0809303
:1009000072068CE00E94F6030E94FC0382E0809352
:10091000730686E0DF91CF910C94F60380620E940B
:10092000F6038BE496E40197F1F7809171068062FB
:100930000E94F60383E592E00197F1F7809171063A
:1009400080620E94F603D5CF90917506691710F06A
:100950006FEF690FE62FF0E0EE59F94F9489890F98
:1009600080680C94F60341E00E94A30381E090E0CC
:100970000895FB0101900020E9F73197AF01461B74
:10098000570BDC01ED91FC910280F381E02D09947D
:100990004F925F926F927F928F929F92AF92BF928F
:1009A000CF92DF92EF92FF920F931F93CF93DF933B
:1009B000CDB7DEB7A1970FB6F894DEBF0FBECDBF9F
:1009C0008C016B01770FEE08FF08F7FE49C0DC01D0
:1009D000ED91FC910190F081E02D6DE209955C01B3
:1009E00022273327A9012C193D094E095F0919A2B5
:1009F000FE01B1967F019AE0492E512C612C712C99
:100A0000CA01B901A30192010E94F90F605DD701EB
:100A10006E937D01211531054105510589F790E05F
:100A200080E0109721F0BD01C8010E94B9048A0D31
:100A30009B1DA1960FB6F894DEBF0FBECDBFDF9110
:100A4000CF911F910F91FF90EF90DF90CF90BF90CB
:100A5000AF909F908F907F906F905F904F90089590
:100A6000A701960119A2FE01B1967F018AE0882EA6
:100A7000912CA12CB12CCA01B901A50194010E94AD
:100A8000F90F605DD7016E937D0121153105410598
:100A9000510589F790E080E0109759F2BD01C80137
:100AA0000E94B904C6CF0F931F93CF93DF93EC013D
:100AB0000E94B9048C0166E371E0CE010E94B90482
:100AC000800F911FDF91CF911F910F9108950F9388
:100AD0001F93CF93DF93EC010E9496018C0166E394
:100AE00071E0CE010E94B904800F911FDF91CF9178
:100AF0001F910F9108950C94B904CF93DF93EC01EB
:100B000088819981009711F00E94BD101982188286
:100B10001D821C821B821A82DF91CF910895FC01F5
:100B200080819181009711F00C94BD100895CF93AE
:100B3000DF93DC0114962D913C911597232B79F0CE
:100B4000FB01CD91DC9160817181CE010E94131275
:100B5000009729F08C1B9D0BDF91CF9108958FEFAB
:100B60009FEFFACF0F931F93CF93DF938C01EB018D
:100B7000FC01808191810097E1F0688179816115A4
:100B80007105A9F0428153812C813D8142175307A1
:100B900070F00E940C128C819D81F80195838483F2
:100BA0001D821C82DF91CF911F910F9108950E94A9
:100BB000BD1088819981F801918380838A819B810E
:100BC000938382838C819D8195838483198218828B
:100BD0001B821A82E5CF0F931F93CF93DF93EC0113
:100BE00088819981009759F02A813B812617370720
:100BF00030F081E0DF91CF911F910F9108958B012B
:100C00006F5F7F4F0E944611009759F09983888348
:100C10001B830A832C813D81232B59F7FC01108211
:100C2000E8CF80E0E7CFEF92FF920F931F93CF932F
:100C3000DF936115710541F480E0DF91CF911F9141
:100C40000F91FF90EF90089541155105B1F07B0190
:100C5000EC010C811D81040F151FB8010E94EB05EA
:100C6000882351F3288139818C819D81B701820FBE
:100C7000931F0E940C121D830C8381E0DECFCF9363
:100C8000DF93EC01FB0144815581608171810E94F9
:100C90001306811103C0CE010E947D05CE01DF91B4
:100CA000CF910895EF92FF920F931F93CF93DF930D
:100CB000EC017B018A01BA010E94EB0581110BC096
:100CC000CE010E947D05CE01DF91CF911F910F9142
:100CD000FF90EF9008951D830C83B701888199815F
:100CE0000E940C12F0CFFB0101900020E9F7319730
:100CF000AF01461B570B0C945206FC011182108267
:100D00001382128215821482FB0101900020E9F700
:100D10003197AF01461B570B0C9452064F925F92CE
:100D20006F927F928F929F92AF92BF92CF92DF92FB
:100D3000EF92FF920F931F93CF93DF9300D0CDB725
:100D4000DEB77C014B018FB7F8944090B705509007
:100D5000B8056090B9057090BA058FBF68E371E07F
:100D6000C7010E947D06092C000CAA08BB082FB7FA
:100D7000F8948091B7059091B805A091B905B0910C
:100D8000BA052FBF84199509A609B70988159905D1
:100D9000AA05BB05A8F48AE796E00E942603892BE2
:100DA00031F38AE796E00E943C0389831A8241E08E
:100DB00050E0BE016F5F7F4FC7010E941306D7CF7F
:100DC000D701AD90BC901197A114B10439F01496DD
:100DD0000D911C91650101151105A9F4C7010F9032
:100DE0000F90DF91CF911F910F91FF90EF90DF90C7
:100DF000CF90BF90AF909F908F907F906F905F90BB
:100E00004F90089564014601BFEF8B1A9B0AF601CB
:100E10008081082E000C990B0E94B60F892B91F748
:100E2000015011090A0D1B1DD8018C91082E000CD0
:100E3000990B0E94B60F892B31F00C151D0518F087
:100E400001501109F1CFA8014F5F5F4F4C195D09A7
:100E5000F70155834483AC14BD0420F4B601C501E9
:100E60000E940312D701ED91FC91119714968D9178
:100E70009C91E80FF91F1082B1CF1F920F920FB60D
:100E80000F9211242F933F938F939F93AF93BF9310
:100E90008091B7059091B805A091B905B091BA05B8
:100EA0003091B60523E0230F2D3758F50196A11D8B
:100EB000B11D2093B6058093B7059093B805A09314
:100EC000B905B093BA058091BB059091BC05A0917E
:100ED000BD05B091BE050196A11DB11D8093BB0556
:100EE0009093BC05A093BD05B093BE05BF91AF9193
:100EF0009F918F913F912F910F900FBE0F901F9058
:100F0000189526E8230F0296A11DB11DD2CF1F927E
:100F10000F920FB60F9211242F933F934F935F932D
:100F20006F937F938F939F93AF93BF93EF93FF93B1
:100F30008FEB95E00E942202FF91EF91BF91AF915C
:100F40009F918F917F916F915F914F913F912F91E1
:100F50000F900FBE0F901F9018951F920F920FB613
:100F60000F9211242F938F939F93EF93FF93E09110
:100F7000CF05F091D0058081E091D505F091D6059F
:100F800082FD1BC090818091D8058F5F8F73209167
:100F9000D905821741F0E091D805F0E0E154FA4F0D
:100FA000958F8093D805FF91EF919F918F912F910D
:100FB0000F900FBE0F901F9018958081F4CF1F9255
:100FC0000F920FB60F9211242F933F934F935F937D
:100FD0006F937F938F939F93AF93BF93EF93FF9301
:100FE000E091AE05F091AF05309749F0A685B78541
:100FF0008585968D91FF14C09C918923A1F4FF9162
:10100000EF91BF91AF919F918F917F916F915F9180
:101010004F913F912F910F900FBE0F901F901895F9
:101020009C91892361F7A389B4899C9185898095D6
:1010300089238C93868997890197F1F7608D718D4B
:10104000A685B785558538E020E0CB010197F1F7FB
:10105000822F90E095958795282F4C91452309F094
:101060002068315091F7868D81FD20958091AD05E6
:1010700090E001968F7399273091AC05381799F05D
:10108000A091AD05B0E0A459BA4F2C938093AD0563
:10109000828D938D0197F1F7A389B4898C919589FD
:1010A000892B8C93ACCF868D8160868FF1CF109287
:1010B000C2051092C10588EE93E0A0E0B0E08093F5
:1010C000C3059093C405A093C505B093C6052AE057
:1010D00031E03093C0052093BF0525EC30E030931C
:1010E000CC052093CB0524EC30E03093CE05209343
:1010F000CD0520EC30E03093D0052093CF0521ECD6
:1011000030E03093D2052093D10522EC30E03093CB
:10111000D4052093D30526EC30E03093D6052093F8
:10112000D5051092D8051092D9051092DA051092C3
:10113000DB0510927D0610927C0680937E069093CC
:101140007F06A0938006B093810688E291E0909399
:101150007B0680937A061092910610929006109268
:101160009306109292061092950610929406109291
:10117000970610929606609198066E7F6D7F609339
:1011800098066695617081E0682781E10E94DF0022
:1011900061E081E10E940D01EFEBF0E0E491E0936A
:1011A0008A06EBEAF0E0E491F0E0EE0FFF1FE05773
:1011B000FF4F8591949190938C0680938B0660E00D
:1011C00080E10E940D018091980681FD04C061E0DC
:1011D00080E10E94DF0080E180938606EEEBF0E084
:1011E000E491E0938706EAEAF0E0E491F0E0EE0FA4
:1011F000FF1FEA57FF4F8591949190938906809342
:10120000880610926506109264068CE191E0909336
:101210006306809362068AE0809366068FEF809370
:1012200067068BE0809368068CE0809369068DE00A
:1012300080936A068EE080936B068FE080936C0645
:1012400010926D0610926E0610926F061092700644
:101250001092710661E080E10E94040469E371E08C
:101260008CE596E00C947D06CF93DF93CDB7DEB787
:10127000E0970FB6F894DEBF0FBECDBF789484B56B
:10128000826084BD84B5816084BD85B5826085BD82
:1012900085B5816085BD80916E00816080936E0010
:1012A0001092810080918100826080938100809102
:1012B00081008160809381008091800081608093B3
:1012C00080008091B10084608093B1008091B00073
:1012D00081608093B00080917A00846080937A006E
:1012E00080917A00826080937A0080917A00816098
:1012F00080937A0080917A00806880937A001092BF
:10130000C100E091CF05F091D00582E08083E091AB
:10131000CB05F091CC051082E091CD05F091CE0582
:101320008FEC80831092D705E091D305F091D4051E
:1013300086E08083E091D105F091D20580818061C3
:101340008083E091D105F091D2058081886080830F
:10135000E091D105F091D205808180688083E09191
:10136000D105F091D20580818F7D808364E084E196
:101370000E94040468E471E082E696E00E947B0526
:1013800061E080E00E94A4046BE571E082E696E0F3
:101390000E947B0562E080E00E94A40467E671E0A1
:1013A00082E696E00E947B0560E082E00E940D01EB
:1013B00060E083E00E940D0160E084E00E940D0186
:1013C00060E085E00E940D0160E086E00E940D0172
:1013D00060E087E00E940D0161E088E00E940D015D
:1013E00061E089E00E940D0160E088E00E94DF007A
:1013F00060E089E00E94DF0068EE73E080E090E04A
:101400000E9463010E94FC0363E771E082E696E0BC
:101410000E947B0561E080E00E94A40460E871E026
:1014200082E696E00E947B0560E177E280E090E052
:101430000E946301109295061092940610929306F2
:101440001092920610929106109290068DE991E00A
:10145000909397068093960690918606963108F0B1
:1014600047C02DEB30E030939106209390062BE996
:1014700031E030939306209392062CE231E03093D2
:101480009506209394062091680084E0983048F0F7
:1014900031E09E3008F430E081E001C0880F3A95D9
:1014A000EAF7822B809368002DE630E0983050F008
:1014B0002BE630E09E3030F02CE630E0963110F034
:1014C00030E020E030938E0620938D06292F30E007
:1014D000983008F04DC081E001C0880F9A95EAF776
:1014E00080938F0680919606909197060197F1F769
:1014F0008091940690919506892B49F1E091AE0573
:10150000F091AF0526E0EA37F20709F1309739F09C
:10151000A389B4899C918589809589238C93809136
:1015200098068E7F809398061092AD051092AC05B8
:101530008AE796E09093AF058093AE05E0918D0623
:10154000F0918E06808190918F06892B80836FE8C1
:1015500071E08FEB95E00E9453058AE796E00E94C8
:101560002603892B91F08AE796E00E943C03F5CF91
:101570009E3040F42850310981E001C0880F2A953F
:10158000EAF7AECF2E503109F7CFEE24E394F12CD9
:1015900061EB71E08FEB95E00E947B05B7018FEB6B
:1015A00095E00E94C80466E371E08FEB95E00E942D
:1015B000B9040E94FC036CEB71E082E696E00E94A5
:1015C0007B05B70182E696E00E94C80466EC71E0F4
:1015D00082E696E00E947B0569EC71E08FEB95E076
:1015E0000E94530561E080E00E94A40465ED71E073
:1015F00082E696E00E947B0562ED71E08AE796E064
:101600000E94530568EE73E080E090E00E94630161
:1016100060ED77E0CE010D960E948E0663EE71E0DC
:101620008FEB95E00E947B05BE01635F7F4F8FEBE0
:1016300095E00E94670564E072E0CE0101960E9489
:101640007D0689899A89892B09F453C30D851E85E6
:1016500069817A81C8010E941312009709F449C375
:10166000AC01401B510B8A01CE0101960E948F05EF
:101670000F3F1F4F09F440C36EEE71E08FEB95E012
:101680000E94530562E080E00E94A40460E072E0E2
:1016900082E696E00E947B0567E072E08FEB95E0C2
:1016A0000E94530563E080E00E94A40469E172E0B7
:1016B00082E696E00E947B0560E172E08AE796E0B0
:1016C0000E94530568EE73E080E090E00E946301A1
:1016D00060ED77E0CE0101960E948E06BE016F5F3D
:1016E0007F4FCE010D960E94B205CE0101960E9459
:1016F0008F0563EE71E08FEB95E00E947B05BE01E4
:10170000635F7F4F8FEB95E00E94670569E272E0AF
:10171000CE0101960E947D06BE016F5F7F4FCE0114
:101720000D960E94970511E00196A9F464E072E01D
:10173000CE0107960E947D06BE01695F7F4FCE01F4
:101740000D960E94970511E0019609F410E0CE0174
:1017500007960E948F05CE0101960E948F051123E6
:1017600009F4D6C26FE272E08FEB95E00E94530558
:1017700060E472E08AE796E00E94530568EE73E049
:1017800080E090E00E94630160ED77E0CE01019679
:101790000E948E06BE016F5F7F4FCE010D960E94A4
:1017A000B205CE0101960E948F0564E072E0CE0181
:1017B00001960E947D06BE016F5F7F4FCE010D96A0
:1017C0000E9497058C01CE0101960E948F050F3F64
:1017D0001F4F09F49DC26AE472E08FEB95E00E940E
:1017E00053056BE572E08FEB95E00E945305CE0147
:1017F0000D960E948F0581E08093B4050E94FC0342
:101800006EE772E082E696E00E947B0561E080E090
:101810000E94A4046CE872E082E696E00E947B05D8
:1018200062E080E00E94A40468E972E082E696E04B
:101830000E947B0560ED77E080E090E00E9463010C
:1018400080E0482E80E0582E82E00E94B6004C01D5
:1018500083E00E94B6005C0184E00E94B6006C0147
:1018600085E00E94B6007C0186E00E94B6008C01F3
:1018700087E00E94B6003C0168E371E0CE018B96E0
:101880000E947D0668E371E0CE0185960E947D0688
:1018900068E371E0CE014F960E947D0621E082163A
:1018A000910429F031E0E316F10409F074C261E714
:1018B00073E0CE018B960E94730661E873E0CE015F
:1018C00085960E94730665E973E0CE014F960E94EB
:1018D000730661E088E00E94DF0061E089E00E9419
:1018E000DF000E94FC0360E080E00E94A40467E83F
:1018F00074E082E696E00E947B05B40182E696E001
:101900000E94C80465E874E082E696E00E947B05C8
:10191000B50182E696E00E94C80465E874E082E6BC
:1019200096E00E947B05B60182E696E00E94C8041C
:1019300060E08AE00E94A4046AE874E082E696E02F
:101940000E947B05B70182E696E00E94C80465E824
:1019500074E082E696E00E947B05B80182E696E09C
:101960000E94C80465E874E082E696E00E947B0568
:10197000B30182E696E00E94C80461E080E00E9424
:10198000A404BE01655D7F4F82E696E00E94960149
:1019900062E080E00E94A404BE016B5D7F4F82E69E
:1019A00096E00E9496018FB7F8948090B7059090CA
:1019B000B805A090B905B090BA058FBF1091B405D5
:1019C000112309F4A5C28091B5058823B1F0809157
:1019D000B0059091B105A091B205B091B305A501F4
:1019E0009401281B390B4A0B5B0BDA01C9018036C5
:1019F0009A4EA105B10508F492C21C8A1B8A1E8A60
:101A00001D8A188E1F8A6F8D78A16115710531F0BE
:101A10004BA15CA1CE0143960E9452061A8E198EEC
:101A20001C8E1B8E1E8E1D8E60915C0670915D0655
:101A30006115710541F04091600650916106CE013B
:101A400049960E9452066DE874E08FEB95E00E9483
:101A5000530562EA74E08FEB95E00E947B05BE01BE
:101A6000675E7F4F8FEB95E00E94670567EA74E041
:101A70008FEB95E00E947B05BE016D5E7F4F8FEB83
:101A800095E00E9467050E94FC0361EB74E082E62A
:101A900096E00E947B0561E080E00E94A40462EA77
:101AA00074E0CE0101960E947D06BE01675E7F4F05
:101AB000CE0101960E943F06BC0182E696E00E949C
:101AC0009601CE0101960E948F0564EF71E080E0DF
:101AD00090E00E94630160E472E08AE796E00E9471
:101AE000530568EE73E080E090E00E94630160EDD2
:101AF00077E0CE0101960E948E06CE0101960E94EB
:101B00008F0560EC74E0CE0101960E947D06BE0157
:101B1000675E7F4FCE0101960E943F067C0141E047
:101B200050E068EC74E00E941306811103C0C70105
:101B30000E947D05B7018AE796E00E946705CE0105
:101B400001960E948F0560ED77E080E090E00E94B2
:101B50006301BE016D5E7F4F8AE796E00E946705D4
:101B600064EF71E080E090E00E9463016AE18AE73F
:101B700096E00E94CA0268EB7BE080E090E00E9461
:101B8000630168E873E1CE010D960E948E066AEC4F
:101B900074E08FEB95E00E947B05BE01635F7F4F91
:101BA0008FEB95E00E94670564E072E0CE0101963C
:101BB0000E947D06BE016F5F7F4FCE010D960E9491
:101BC00097050196A9F469ED74E0CE0107960E948D
:101BD0007D06BE01695F7F4FCE010D960E9497057D
:101BE00011E0019609F410E0CE0107960E948F05DE
:101BF000CE0101960E948F05112309F470C16FED8B
:101C000074E08FEB95E00E9453050E94FC0369EF9E
:101C100074E082E696E00E947B0561E080E00E942D
:101C2000A40462EA74E0CE0101960E947D06BE0122
:101C3000675E7F4FCE0101960E943F06BC0182E69F
:101C400096E00E949601CE0101960E948F0568EEF3
:101C500073E080E090E00E946301CE010D960E9447
:101C60008F05CE0149960E948F05CE0143960E94B2
:101C70008F0581E08093B5058092B0059092B10503
:101C8000A092B205B092B30563E080E00E94A40484
:101C90006AE275E082E696E00E947B056EE475E0FC
:101CA0008FEB95E00E947B05BE01615E7F4F8FEB5D
:101CB00095E00E94670564EF71E080E090E00E948B
:101CC0006301CE014F960E948F05CE0185960E943A
:101CD0008F05CE018B960E948F054114510409F4A3
:101CE000B3CD0E940E02882309F4AECD0E940000FD
:101CF000ABCD0FEF1FEFB8CC89899A8965EA72E006
:101D0000892B11F06AEC72E08FEB95E00E9453058D
:101D100060ED77E080E090E00E946301CE010D96D7
:101D20000E948F055FEFE51AF50A86E0E816F104D8
:101D300009F02ECC62EE72E08FEB95E00E94530525
:101D400064E073E08FEB95E00E9453051092B405B8
:101D50000E94FC0363E373E082E696E00E947B0549
:101D600061E080E00E94A40461E473E082E696E012
:101D70000E947B0562E080E00E94A4046EE473E0B0
:101D800082E696E00E947B0563E080E00E94A40466
:101D90006EE573E04BCD41E0A416B10419F00130BB
:101DA000110579F464EC73E0CE018B960E94730602
:101DB00064ED73E0CE0185960E94730668EE73E0D1
:101DC00084CD51E0C516D10421F081E0681671047C
:101DD00079F467E174E0CE018B960E94730667E2A6
:101DE00074E0CE0185960E9473066BE374E06DCDBE
:101DF00060E088E00E94DF0060E089E00E94DF0090
:101E00001092B5050E94FC0360E080E00E94A404EB
:101E10006AE674E082E696E00E947B0561E080E07D
:101E20000E94A40469E774E082E696E00E947B05C4
:101E3000B40182E696E00E94C80465E874E082E698
:101E400096E00E947B05B50182E696E00E94C804F8
:101E500065E874E082E696E00E947B05B60182E6C2
:101E600096E00E94C80462E080E00E94A40460E85A
:101E700074E082E696E00E947B05B70182E696E078
:101E80000E94C80465E874E082E696E00E947B0543
:101E9000B80182E696E00E94C80465E874E082E634
:101EA00096E00E947B05B30182E696E00E94C8049A
:101EB00063E080E00E94A4048091B40566E575E0CB
:101EC000811102C064E375E082E696E00E947B0522
:101ED00061E675E08FEB95E00E945305ECCE63E080
:101EE00075E08FEB95E00E9453050E94FC0362E1D0
:101EF00075E082E696E00E947B0561E080E00E944A
:101F0000A4046EE175E082E696E00E947B059FCE18
:101F100063E080E00E94A40464E375E0BBCE63E06C
:101F200080E00E94A40461E475E0B4CE8CE596E004
:101F30000E948F0588E291E090937B0680937A0659
:101F40008091AE059091AF058A57964071F4E0916B
:101F50008D06F0918E06908180918F068095892361
:101F600080831092AF051092AE05089591110C94E4
:101F7000BF0F803219F089508550C8F7089599270E
:101F8000882708952F923F924F925F926F927F928F
:101F90008F929F92AF92BF92CF92DF92EF92FF9279
:101FA0000F931F93CF93DF93CDB7DEB7CA1BDB0B25
:101FB0000FB6F894DEBF0FBECDBF09942A883988CA
:101FC00048885F846E847D848C849B84AA84B984D1
:101FD000C884DF80EE80FD800C811B81AA81B981DD
:101FE000CE0FD11D0FB6F894DEBF0FBECDBFED01F1
:101FF0000895A1E21A2EAA1BBB1BFD010DC0AA1F4A
:10200000BB1FEE1FFF1FA217B307E407F50720F061
:10201000A21BB30BE40BF50B661F771F881F991FDC
:102020001A9469F760957095809590959B01AC0125
:10203000BD01CF010895EE0FFF1F0590F491E02D33
:1020400009940F931F93CF93DF938230910510F47F
:1020500082E090E0E0919B06F0919C0630E020E069
:10206000B0E0A0E0309799F42115310509F44AC099
:10207000281B390B24303105D8F58A819B816115E5
:10208000710589F1FB0193838283FE0111C04081B8
:1020900051810281138148175907E0F04817590709
:1020A00099F4109761F012960C93129713961C9363
:1020B0003296CF01DF91CF911F910F910895009338
:1020C0009B0610939C06F4CF2115310551F0421761
:1020D000530738F0A901DB019A01BD01DF01F801C6
:1020E000C1CFEF01F9CF90939C0680939B06CDCF93
:1020F000FE01E20FF31F819391932250310939833E
:102100002883D7CF2091990630919A06232B41F44A
:10211000209102013091030130939A062093990691
:1021200020910001309101012115310541F42DB7B5
:102130003EB74091040150910501241B350BE091FD
:102140009906F0919A06E217F307A0F42E1B3F0BB5
:102150002817390778F0AC014E5F5F4F2417350719
:1021600048F04E0F5F1F50939A0640939906819353
:1021700091939FCFF0E0E0E09CCFCF93DF93009767
:10218000E9F0FC01329713821282A0919B06B09174
:102190009C06ED0130E020E01097A1F42081318110
:1021A000820F931F2091990630919A0628173907BC
:1021B00009F061C0F0939A06E0939906DF91CF9100
:1021C0000895EA01CE17DF07E8F54A815B819E0199
:1021D00041155105B1F7E901FB83EA834991599112
:1021E000C40FD51FEC17FD0761F480819181029621
:1021F000840F951FE90199838883828193819B8352
:102200008A83F0E0E0E012968D919C9113970097FD
:10221000B9F52D913C911197CD010296820F931F34
:102220002091990630919A062817390739F6309788
:1022300051F510929C0610929B06B0939A06A093BB
:102240009906BCCFD383C28340815181840F951FEF
:10225000C817D90761F44E5F5F4F88819981480F95
:10226000591F518340838A819B81938382832115E7
:10227000310509F0B0CFF0939C06E0939B069ECF0A
:10228000FD01DC01C0CF13821282D7CFB0E0A0E005
:10229000ECE4F1E10C94C40F8C01009751F4CB01F4
:1022A0000E9421108C01C801CDB7DEB7E0E10C948B
:1022B000E00FFC01E60FF71F9C0122503109E217E5
:1022C000F30708F49DC0D901CD91DC911197C61791
:1022D000D70798F0C530D10530F3CE0104978617A3
:1022E000970708F3C61BD70B2297C193D1936D9321
:1022F0007C93CF010E94BD10D6CF5B01AC1ABD0A02
:102300004C018C0E9D1EA0919B06B0919C06512CF9
:10231000412CF12CE12C109731F580919906909188
:102320009A068815990509F05CC04616570608F00C
:1023300058C08091000190910101009741F48DB740
:102340009EB74091040150910501841B950BE8173D
:10235000F90708F055C0F0939A06E0939906F90141
:1023600071836083A0CF8D919C91119712966C9090
:10237000129713967C901397A815B90559F56C011F
:1023800042E0C40ED11CCA14DB0420F1AC014A198E
:102390005B09DA011296159780F06282738251838D
:1023A0004083D9016D937C93E114F10471F0D7015E
:1023B0001396FC93EE93129776CF22968C0F9D1F67
:1023C000F90191838083F301EFCFF0939C06E093B2
:1023D0009B0669CF4816590608F42C017D01D301EC
:1023E0009ACFCB010E9421107C01009749F0AE01E9
:1023F000B8010E940312C8010E94BD10870153CF8B
:1024000010E000E050CFFB01DC0102C001900D9212
:1024100041505040D8F70895FB01DC0101900D9226
:102420000020E1F70895FB0151915523A9F0BF0168
:10243000DC014D9145174111E1F759F4CD010190AF
:10244000002049F04D9140154111C9F3FB014111A4
:10245000EFCF81E090E00197089510E0C2E6D0E070
:1024600004C0FE010E941B102196C336D107C9F794
:10247000F894FFCF00009D06800000000000440299
:10248000A401D10191020202E001F4010000000068
:10249000B304A4015D03950100000000CA02A40179
:1024A0005D03C90226033C03B1020D0A002B383834
:1024B0003031373931343136363832004669726559
:1024C000205361666574792053797374656D005388
:1024D00074617274696E672E2E2E00506C65617384
:1024E0006520776169740047534D20506F7765729E
:1024F000204F4E0057616974203130207365632E80
:102500002E2E000A3D3D3D2047534D20494E495453
:1025100049414C495A4154494F4E20535441525419
:10252000203D3D3D000A417474656D7074202300A8
:1025300047534D205465737420002F350053656E4A
:1025400064696E673A20415400415420636F6D6D99
:10255000616E642E2E2E00526573706F6E73653A35
:102560002000E29C9320415420636F6D6D616E6486
:10257000204F4B0041543A204F4B0053656E646925
:102580006E673A2041542B4350494E3F00436865E3
:10259000636B696E672053494D2E2E2E00524541C4
:1025A000445900E29C932053494D20697320726581
:1025B0006164790041542B434D47463D3100E29C14
:1025C0009320534D53206D6F646520736574003DF7
:1025D0003D3D2047534D20494E495449414C495AAD
:1025E0004154494F4E2053554343455353203D3D9D
:1025F0003D0047534D3A2053554343455353210023
:10260000534D533A2041637469766500537973746E
:10261000656D20526561647900E29C97204E6F20C1
:10262000726573706F6E7365202D20436865636BF0
:1026300020776972696E672F706F77657200E29C10
:102640009720556E65787065637465642072657354
:10265000706F6E7365003D3D3D2047534D20494EE0
:10266000495449414C495A4154494F4E20464149E9
:102670004C4544203D3D3D00436865636B3A203145
:102680002E20506F77657220283132562F32412923
:1026900020322E20576972696E6720332E205349ED
:1026A0004D20636172640047534D3A204F46464CBB
:1026B000494E452100534D532044697361626C6556
:1026C00064004C6F63616C20616C65727473204FA1
:1026D0004B00436865636B20706F7765722F776975
:1026E00072696E670046697265206F6E20426C6F7A
:1026F000636B2041005573652053746169727320C8
:102700006F6620422026204300454D455247454EE6
:1027100043592120466972652F426C6F636B2041DB
:10272000202D20457661633A2055736520537461EE
:10273000697273204226430046697265206F6E20DD
:10274000426C6F636B20420055736520537461695E
:102750007273206F6620412026204300454D45526C
:1027600047454E43592120466972652F426C6F637D
:102770006B2042202D20457661633A2055736520F9
:102780005374616972732041264300466972652063
:102790006F6E20426C6F636B20430055736520534E
:1027A0007461697273206F662041202620420045C3
:1027B0004D455247454E43592120466972652F4287
:1027C0006C6F636B2043202D20457661633A205562
:1027D00073652053746169727320412642005374FB
:1027E000617475733A204E6F726D616C00466C6156
:1027F0006D653A004761733A202000463A00473A37
:10280000000A3D3D3D2053454E44494E4720534D1F
:1028100053203D3D3D00546F3A20004D6573736178
:1028200067653A200053656E64696E6720534D53A7
:102830002E2E2E0041542B434D47533D2200534D25
:102840005320726573706F6E73653A20002B434D91
:10285000475300E29C9320534D532073656E7420C0
:102860007375636365737366756C6C7900534D5350
:102870002053454E542100E29C9720534D5320662F
:1028800061696C656400534D53204641494C454491
:1028900021005265747279206C6174657200534D29
:1028A000532073656E74210047534D3A204F66667E
:1028B0006C696E6500416C65727420416374697661
:1028C0006500414C4552543A200047534D3A20523E
:1028D0006561647900416C6C20636C656172000015
:107E0000112484B714BE81FFF0D085E080938100F7
:107E100082E08093C00088E18093C10086E0809377
:107E2000C20080E18093C4008EE0C9D0259A86E02C
:107E300020E33CEF91E0309385002093840096BBD3
:107E4000B09BFECF1D9AA8958150A9F7CC24DD24C4
:107E500088248394B5E0AB2EA1E19A2EF3E0BF2EE7
:107E6000A2D0813461F49FD0082FAFD0023811F036
:107E7000013811F484E001C083E08DD089C08234E0
:107E800011F484E103C0853419F485E0A6D080C0E4
:107E9000853579F488D0E82EFF2485D0082F10E0AE
:107EA000102F00270E291F29000F111F8ED06801E7
:107EB0006FC0863521F484E090D080E0DECF843638
:107EC00009F040C070D06FD0082F6DD080E0C81688
:107ED00080E7D80618F4F601B7BEE895C0E0D1E017
:107EE00062D089930C17E1F7F0E0CF16F0E7DF06D8
:107EF00018F0F601B7BEE89568D007B600FCFDCFD4
:107F0000A601A0E0B1E02C9130E011968C91119780
:107F100090E0982F8827822B932B1296FA010C0160
:107F200087BEE89511244E5F5F4FF1E0A038BF0790
:107F300051F7F601A7BEE89507B600FCFDCF97BE46
:107F4000E89526C08437B1F42ED02DD0F82E2BD052
:107F50003CD0F601EF2C8F010F5F1F4F84911BD097
:107F6000EA94F801C1F70894C11CD11CFA94CF0C13
:107F7000D11C0EC0853739F428D08EE10CD085E9AC
:107F80000AD08FE07ACF813511F488E018D01DD067
:107F900080E101D065CF982F8091C00085FFFCCF94
:107FA0009093C60008958091C00087FFFCCF809118
:107FB000C00084FD01C0A8958091C6000895E0E648
:107FC000F0E098E1908380830895EDDF803219F02E
:107FD00088E0F5DFFFCF84E1DECF1F93182FE3DFCA
:107FE0001150E9F7F2DF1F91089580E0E8DFEE27F6
:047FF000FF270994CA
:027FFE00040479
:00000001FF
